:020000040800F2
:100000000005002045010008491300084B130008B3
:100010004F13000853130008571300080000000096
:100020000000000000000000000000005B1300085A
:100030005D130008000000005F1300086113000852
:100040005F0100085F0100085F0100085F01000810
:100050005F0100085F0100085F0100085F01000800
:100060005F0100085F0100085F0100085F010008F0
:100070005F0100085F0100085F0100085F010008E0
:100080005F0100085F0100085F0100085F010008D0
:100090005F0100085F0100085F0100085F010008C0
:1000A0005F0100085F0100085F0100085F010008B0
:1000B0005F0100085F0100085F0100085F010008A0
:1000C0005F0100085F0100085F0100085F01000890
:1000D0005F0100085F0100085F0100085F01000880
:1000E0005F0100085F0100085F0100085F01000870
:1000F0005F0100085F0100085F0100085F01000860
:100100005F0100085F0100085F0100085F0100084F
:100110005F0100085F0100085F0100085F0100083F
:100120005F0100085F0100085F0100085F0100082F
:10013000DFF80CD001F052FB0048004781110008A5
:10014000000500200648804706480047FEE7FEE716
:10015000FEE7FEE7FEE7FEE7FEE7FEE7FEE7FEE777
:1001600047020008310100080CB500200190009002
:100170006C48006840F480306A49086000BF6948F4
:10018000006800F4003000900198401C0190009835
:1001900018B90198B0F5A06FF1D16248006800F479
:1001A000003010B10120009001E000200090009884
:1001B000012843D15C48006840F010005A490860AB
:1001C0000846006820F0030008600846006840F018
:1001D0000200086053484068524948600846406839
:1001E00048600846406840F48060486008464068BF
:1001F00020F47C1048600846406840F4E8104860ED
:100200000846006840F08070086000BF45480068FC
:1002100000F000700028F9D04248406820F0030048
:10022000404948600846406840F00200486000BF0E
:100230003C48406800F00C000828F9D10CBD10B50E
:10024000FFF792FF10BD10B53648006840F001007E
:1002500034490860084640683449084031494860DC
:1002600008460068324908402E4908600846006880
:1002700020F4802008600846406820F4FE004860B2
:100280004FF41F008860FFF7DAFF4FF00060294944
:10029000086010BD10B5002100200022214B5B68D2
:1002A00003F00C0121B1042906D0082928D107E068
:1002B000214B224C236027E01F4B204C236023E07E
:1002C000184B5B6803F47010164B5B6803F48032C4
:1002D000022303EB904022B9194B4343174C236090
:1002E0000DE0104B5B6803F4003323B1144B434320
:1002F000124C236003E0104B4343104C236003E097
:100300000D4B0E4C236000BF00BF064B5B68C3F370
:1003100003130C4CE15C094B1B68CB40074C23607A
:1003200010BD000000100240002002400000FFF855
:10033000FFFFF6FE08ED00E000127A00000000204A
:1003400000093D000400002010B50446CC4884425A
:1003500008D10121042000F02DFB0021042000F031
:1003600029FB46E0C748844208D10121082000F05B
:1003700021FB0021082000F01DFB3AE0C248844226
:1003800008D10121102000F015FB0021102000F001
:1003900011FB2EE0BD48844208D10121202000F04D
:1003A00009FB0021202000F005FB22E0B848844230
:1003B00008D10121402000F0FDFA0021402000F08A
:1003C000F9FA16E0B348844208D10121802000F0F8
:1003D000F1FA0021802000F0EDFA0AE0AE488442F4
:1003E00007D10121801500F0E5FA0021A01500F0E9
:1003F000E1FA10BD10B50121084600F0DBFA00213A
:10040000012000F0D7FA10BD2DE9F0410246002589
:100410000026002000230024002791F803C00CF0E0
:100420000F0591F803C00CF0100CBCF1000F03D0C5
:1004300091F802C04CEA050591F800C0BCF1000F2C
:1004400031D0146800202BE04FF0010C0CFA00F3BF
:10045000B1F800C00CEA03069E4220D183004FF0A1
:100460000F0C0CFA03F7BC4305FA03FC4CEA040436
:1004700091F803C0BCF1280F06D14FF0010C0CFA23
:1004800000FCC2F814C00AE091F803C0BCF1480FA8
:1004900005D14FF0010C0CFA00FCC2F810C0401C52
:1004A0000828D1D31460B1F800C0BCF1FF0F34DDCF
:1004B000546800202EE000F1080C4FF0010808FA03
:1004C0000CF3B1F800C00CEA03069E4221D1830070
:1004D0004FF00F0C0CFA03F7BC4305FA03FC4CEA8F
:1004E000040491F803C0BCF1280F05D100F1080CF9
:1004F00008FA0CF8C2F8148091F803C0BCF1480F58
:1005000007D100F1080C4FF0010808FA0CF8C2F806
:100510001080401C0828CED35460BDE8F0814FF60F
:10052000FF710180022181700421C1707047024671
:10053000002093680B400BB1012000E000207047C1
:100540000146886880B2704702460020D3680B409D
:100550000BB1012000E0002070470146C86880B25E
:10056000704701617047416170470AB1016100E065
:1005700041617047C16070474FF480320A43826125
:100580008161826182698269704702460020434B23
:1005900018684FF68073184040EA021008433F4B3A
:1005A000186070473E49C8617047F0B50A4600239D
:1005B00000240021002500F00046B6F1004F02D1D2
:1005C000364EF16901E0354E7168C0F3034583B2E0
:1005D00000F44016B6F5401F08D121F070612F4E8F
:1005E000766826F070662D4F7E6012E000F480166B
:1005F000B6F5801F06D1032606FA05F4A14341F0A3
:10060000706106E0460D360103FA06F6B14341F08B
:10061000706122B1460D360103FA06F6314300F04F
:100620000046B6F1004F02D11C4EF16101E01B4EB5
:100630007160F0BD30B500228B071C0F0F2303FA49
:1006400004F2164B08338C1053F824309343134CA8
:1006500008348D1044F8253023468C1053F824308C
:100660008C07240F00FA04F423430C4C08348D103B
:1006700044F8253030BD0A49DC310860704700007D
:1006800000080140000C014000100140001401402E
:1006900000180140001C0140002001400000014002
:1006A00000002042DF48006840F00100DD4908609A
:1006B00008464068DC490840DA4948600846006856
:1006C000DA490840D74908600846006820F48020CD
:1006D00008600846406820F4FE0048604FF41F00A0
:1006E00088607047CF49096821F48031CD4A116094
:1006F0001146096821F480211160B0F5803F03D0D4
:10070000B0F5802F0ED106E0C649096841F480316A
:10071000C44A116007E0C349096841F4A021C14AF5
:10072000116000E000BF00BF704710B50146002215
:10073000002300204A11012A02D1BA4C236806E0A6
:10074000022A02D1B74C236A01E0B64C636A01F079
:100750001F02012494401C400CB1012000E0002045
:1007600010BD38B5002000900024002500BF3120C6
:10077000FFF7DBFF05460098401C00900098B0F59D
:10078000A06F01D0002DF2D03120FFF7CEFF08B1CD
:10079000012400E00024204638BD01460020A14A83
:1007A000106820F0F80040EAC10010607047A049CE
:1007B00008607047024600209A4B586820F47C106D
:1007C00042EA01031843974B5860704798490866FE
:1007D000704701460020934A506820F00300084308
:1007E000506070478F48406800F00C007047014629
:1007F00000208C4A506820F0F00008435060704799
:1008000001460020874A506820F4E06008435060A9
:10081000704701460020834A506820F4605040EA47
:10082000C1005060704729B17E4A527A02437D4B25
:100830005A7204E07B4A527A82437A4B5A7270476A
:100840007B49D8310860704701460020754A5068DE
:1008500020F440400843506070470021714A203224
:100860001170704A82F82010012802D004280AD1A1
:1008700004E001216B4A2032117005E00521694A2C
:100880002032117000E000BF00BF70476949086066
:1008900070476449096A0143624A116270476549B9
:1008A00044390860704730B500210022002400233D
:1008B0005C4D6D6805F00C0121B1042905D00829B3
:1008C00023D105E05C4D056022E05B4D05601FE033
:1008D000544D6D6805F47012524D6D6805F4803406
:1008E000022505EB92421CB9544D554305600BE0BF
:1008F0004C4D6D6805F400351DB1504D55430560F4
:1009000002E04D4D5543056002E04B4D056000BFD0
:1009100000BF444D6D6805F0F0010909484D6B5C5E
:100920000568DD4045603F4D6D6805F4E061090AEA
:10093000434D6B5C4568DD4085603A4D6D6805F45C
:100940006051C90A3E4D6B5C4568DD40C560354D60
:100950006D6805F44041890B3A4D6B5CC568B5FB89
:10096000F3F5056130BD29B12E4A526902432D4B82
:100970005A6104E02B4A526982432A4B5A617047FC
:1009800029B1284A92690243264B9A6104E0254A1C
:1009900092698243234B9A61704729B1214AD269F7
:1009A0000243204BDA6104E01E4AD26982431D4BA8
:1009B000DA61704729B11B4AD2680243194BDA60E9
:1009C00004E0184AD2688243164BDA60704729B1B6
:1009D000144A12690243134B1A6104E0114A126966
:1009E0008243104B1A6170471249403908607047C2
:1009F0000F49C86470470B49C87170470948406A7D
:100A000040F0807007494862704701460020054A5F
:100A100092680A400AB1012000E0002070470149B5
:100A200088727047001002400000FFF8FFFFF6FEDA
:100A3000000042428004424200127A0000093D0058
:100A4000140000202400002010B50446BE48844253
:100A500008D101218014FFF7ADFF0021A014FFF79A
:100A6000A9FF16E0B948844208D101210014FFF71C
:100A7000AEFF00212014FFF7AAFF0AE0B448844229
:100A800007D10121C013FFF7A2FF0021E013FFF7F8
:100A90009EFF10BD10B50022028802F441520B885F
:100AA0004C8823438C882343CC8823430C892343DD
:100AB0004C8923438C892343CC8923431A430280E6
:100AC000838B4FF2FF74234083830B8A038210BD14
:100AD0002DE9F04F85B005460C464FF0000902277E
:100AE0004FF000084FF0010B0026B246A88B4FF2E2
:100AF00040010840A88302202884B5F81C90A06813
:100B0000022801D100BF38E0A08810B94FF0010BD6
:100B100001E04FF0020B8D48854200D100E000BF9C
:100B20006846FFF7C0FEDDF800A0E088B0F5007F62
:100B30000AD14FEA1A2000EB80004000A168B0FB08
:100B4000F1F0401D86B20BE04FEA4B10BAFBF0F01B
:100B500000EB80004000A168B0FBF1F0401D86B2C0
:100B60000A20B6FBF0F606F00108A6EB0800C0F379
:100B70004F074FF6FF7000EA0828022F01DBFF2F16
:100B800002DD02274FF00008E08840EA0800384301
:100B90002884A088A18908436188084321880843E4
:100BA00040F4006040EA0909A5F81C9005B0BDE8D2
:100BB000F08F0021018041808180C18001814181CD
:100BC0008181C1810721018270470021018041801C
:100BD0008180C1800221816000218181704721B123
:100BE000028842F04002028004E002884FF6BF73A0
:100BF0001A400280704721B1828B42F48062828366
:100C000004E0828B4FF6FF331A408283704730B581
:100C1000002400230C110125A540ABB21AB1858830
:100C20001D43858002E085889D43858030BD1AB1D3
:100C300083880B43838002E083888B4383807047E3
:100C4000818170470146888970474FF6FF62914263
:100C500004D0028842F48072028004E002884FF6D9
:100C6000FF631A400280704721B1828842F004027B
:100C7000828004E082884FF6FB731A4082807047BE
:100C800002884FF2FF731A40028002880A430280F2
:100C90007047018841F480510180704721B102887A
:100CA00042F40052028004E002884DF6FF731A40BD
:100CB0000280704702460020012901D0108B00E01D
:100CC000908A70470146088A7047B1F5804F04D179
:100CD000028842F48042028004E002884BF6FF73EF
:100CE0001A40028070470246002013890B400BB166
:100CF000012000E000207047CA4302817047F0B530
:100D00000246002000240023002501F00F070126E1
:100D1000BE40B4B20B1101269E40B3B2968806EADB
:100D200003051689264016B10DB1012000E0002010
:100D3000F0BD10B5002201F00F040123A3409AB2C8
:100D4000D343038110BD0000003001400038004053
:100D5000003C004010B50446FB48844209D1012103
:100D60008803FFF727FE00214FF48040FFF722FEA3
:100D700032E0F648844209D101214804FFF727FEFA
:100D800000214FF40030FFF722FE25E0F0488442B6
:100D900009D101218804FFF71AFE00214FF48020B9
:100DA000FFF715FE18E0EB48844209D10121C80481
:100DB000FFF70DFE00214FF40020FFF708FE0BE0C7
:100DC000E548844208D101210805FFF700FE002113
:100DD0004FF48010FFF7FBFD10BD2DE9F04786B002
:100DE00005460E460024A24600BFA1460027B08952
:100DF00000B100BF2F462C8A4CF6FF700440F088EB
:100E000004432C82AC894EF6F3100440B08831893B
:100E10000843718908430443AC81AC8A4FF6FF4014
:100E20000440B0890443AC8201A8FFF73CFDC648EA
:100E3000874202D1DDF810A001E0DDF80CA0A889FE
:100E400000F4004040B10AEBCA0000EB0A10316820
:100E50004900B0FBF1F807E00AEBCA0000EB0A100A
:100E600031688900B0FBF1F86420B8FBF0F00401B0
:100E70002009642101FB1089A88900F4004040B1D9
:100E8000322000EBC900B0FBF1F000F00700044392
:100E900008E0322000EB09106421B0FBF1F000F013
:100EA0000F0004432C8106B0BDE8F0874FF41651C3
:100EB000016000218180C18001810C2141810021DC
:100EC0008181704710B502460020108A4FF2FF035F
:100ED00018400B884C8823438C882343CC882343B9
:100EE0001843108210BD0021018041808180C180A3
:100EF000704721B1828942F40052828104E08289E4
:100F00004DF6FF731A4082817047F0B50346002406
:100F100000260025002040F66A17B94200D100BF24
:100F20001846C1F3421401F01F06012707FA06F51F
:100F3000012C01D10C3004E0022C01D1103000E072
:100F400014301AB107682F43076002E00768AF4307
:100F50000760F0BD1AB1838A0B43838202E0838A63
:100F60008B4383827047028A4FF6F0731A400282E5
:100F7000028A0A430282704782894FF2FF731A4045
:100F8000828182890A438281704721B1828942F03D
:100F90000202828104E082894FF6FD731A40828149
:100FA0007047028A4FF6DF731A400282028A0A43B0
:100FB0000282704721B1028A42F48042028204E038
:100FC000028A4BF6FF731A4002827047C1F308028F
:100FD0008280704701468888C0F308007047818985
:100FE00041F0010181817047028BD2B20283028BF2
:100FF00042EA012202837047028B02F47F4202839D
:10100000028B0A430283704721B1828A42F0200298
:10101000828204E0828A4FF6DF731A408282704730
:1010200021B1828A42F01002828204E0828A4FF665
:10103000EF731A408282704721B1828A42F008021F
:10104000828204E0828A4FF6F7731A4082827047E8
:1010500021B1828942F40042828103E08289C2F395
:101060000E028281704721B1828A42F4006282823C
:1010700004E0828A4FF2FF731A4082827047828AAC
:101080004FF6FB731A408282828A0A43828270473B
:1010900021B1828A42F00202828204E0828A4FF603
:1010A000FD731A408282704702460020B1F5007F2E
:1010B00000D100BF13880B400BB1012000E00020DD
:1010C000704701F40072B2F5007F00D100BFCA433F
:1010D0000280704770B502460024002300250020DE
:1010E00040F66A16B14200D100BFC1F3421501F0CB
:1010F0001F03012606FA03F3012D02D1968933401E
:1011000006E0022D02D1168A334001E0968A334070
:101110000C12012606FA04F41688344013B10CB1FF
:10112000012000E0002070BD10B50022002340F631
:101130006A14A14200D100BF0A1201249440A3B254
:10114000DC43048010BD0000003801400044004032
:1011500000480040004C00400050004010B50346DD
:1011600007E018780C78A04201D0002010BD5B1C6D
:10117000491C1000A2F10104A2B2F2D10120F5E74E
:1011800000F04EF920203749086001200860022055
:10119000091D086000F0E6F833A000F051FB00F0F4
:1011A000D7F900F01FFA054629463BA000F048FB9E
:1011B000002000F057FA002405E004F130003A491D
:1011C0000855601C84B2642CF7DB64223649002089
:1011D00000F08EFA344935A000F032FB64223B491E
:1011E000002000F05CFA3AA000F02AFB002410E096
:1011F0003648015D3DA000F023FB0A2094FBF0F18E
:1012000000FB1140092802D126A000F019FB601C48
:1012100084B2642CECDB642223492C48FFF79EFF48
:10122000344908700846007801280CD120200D4967
:1012300008600120091D08600220091F08602EA017
:1012400000F0FEFA0BE020200649091D086001208D
:10125000091F08600220086031A000F0F1FA00BF09
:10126000FEE70000100C01400D0A20E8BF99E69847
:10127000AFE4B880E4B8AA5350492D464C415348D6
:10128000E8AFBBE58699E6B58BE8AF95E4BE8BE7A2
:10129000A88B200D0A0000000D0A206964203D3053
:1012A000782578200D0A0000980000200D0A20E51E
:1012B0008699E585A5E79A84E695B0E68DAEE4B813
:1012C000BAEFBC9A2573200D0900000034000020FD
:1012D0000D0A20E8AFBBE587BAE79A84E695B0E649
:1012E0008DAEE4B8BAEFBC9A200D0A0030782578AC
:1012F00020000000280000200D0A20384DE4B8B27C
:10130000E8A18C666C6173682857323551363429F0
:10131000E6B58BE8AF95E68890E58A9F210A0D0037
:101320000D0A20384DE4B8B2E8A18C666C61736890
:101330002857323551363429E6B58BE8AF95E5A408
:10134000B1E8B4A5210A0D00704700BFFEE700BF59
:10135000FEE700BFFEE700BFFEE77047704770473B
:101360007047000000B585B001210420FFF708FB9D
:1013700001218803FFF704FB4FF40070ADF8100063
:1013800018208DF8130003208DF8120004A92248BC
:10139000FFF73AF84FF48060ADF8100004208DF8A4
:1013A000130004A91C48FFF72FF84FF4E130009018
:1013B0000020ADF80400ADF80600ADF80800ADF867
:1013C0000C000C20ADF80A0069461448FFF705FD33
:1013D00001211248FFF78DFD05B000BD70B5044630
:1013E0000D46E1B20D48FFF7F1FD00BF80210B482B
:1013F000FFF75AFE0028F9D0204670BD10B504460C
:1014000000BF20210548FFF74FFE0028F9D0034810
:10141000FFF7E0FD10BD000000080140003801406A
:1014200008B501210820FFF7ABFA2020ADF8000035
:1014300010208DF8030003208DF8020069460F4844
:10144000FEF7E2FF0120ADF8000069460B48FEF709
:10145000DBFF0220ADF8000069460848FEF7D4FF24
:1014600020210648FFF77DF801210448FFF779F8AD
:1014700002210248FFF775F808BD0000000C01408A
:1014800008B501210803FFF77BFA01210420FFF7CB
:1014900077FA2020ADF8000003208DF80200182014
:1014A0008DF803006946A648FEF7AEFF8020ADF830
:1014B000000003208DF8020018208DF80300694613
:1014C0009F48FEF7A1FF4020ADF8000003208DF8F3
:1014D000020004208DF8030069469948FEF794FF46
:1014E0001020ADF8000003208DF8020010208DF8C8
:1014F000030069469248FEF787FF10219048FFF7E6
:1015000030F808BD30B585B004460D463020ADF842
:101510000C00ADF80850ADF806400020ADF8100002
:10152000ADF80400ADF80000ADF80E004FF4827085
:10153000ADF802004FF40070ADF80A00694681482A
:10154000FFF7A8FA01217F48FFF749FB05B030BD3E
:1015500010B500210120FFF7D5FF10BD10B50446DE
:10156000214679A000F06CF9002010BD10B50446AA
:101570004FF480507F4908600AE07E490868411EA8
:101580007C4A116020B90020FFF7E8FFC0B210BD0F
:1015900002216C48FFF7A7FB0028EED021466948DE
:1015A000FFF74EFB4FF48050724908600AE0714922
:1015B0000868411E6F4A116020B90020FFF7CEFF76
:1015C000C0B2E4E701215F48FFF78DFB0028EED0B1
:1015D0005C48FFF737FBC0B2D9E710B50020FFF732
:1015E000C5FF10BD10B510215548FEF7BCFF9F2068
:1015F000FFF7BCFF0020FFF7B9FF044624020020DC
:10160000FFF7B4FF044324020020FFF7AFFF0443B9
:1016100010214B48FEF7A5FF204610BD10B5102144
:101620004748FEF7A0FF0620FFF7A0FF102144481F
:10163000FEF797FF10BD10B5002410214048FEF7BB
:1016400092FF0520FFF792FF00BF0020FFF78EFFFB
:10165000044604F001000028F7D110213848FEF7B5
:1016600080FF10BD10B50446FFF7D8FF10213448A5
:10167000FEF779FF2020FFF779FFC4F30740FFF75B
:1016800075FFC4F30720FFF771FFE0B2FFF76EFFAD
:1016900010212B48FEF765FFFFF7CDFF10BD70B599
:1016A00004460D461646FFF7B9FF10212448FEF701
:1016B0005AFF0320FFF75AFFC4F30740FFF756FF16
:1016C000C4F30720FFF752FFE0B2FFF74FFF04E03B
:1016D0000020FFF74BFF28706D1C3000A6F10106BB
:1016E000F6D110211648FEF73CFFFFF7A4FF70BDAE
:1016F00070B504460D461646FFF790FF10211048BE
:10170000FEF731FF0220FFF731FFC4F30740FFF778
:101710002DFFC4F30720FFF729FFE0B2FFF726FFF4
:1017200003E02878FFF722FF6D1C3000A6F10106C8
:10173000F7D110210248FEF714FFFFF77CFF70BDC0
:1017400000080140003001403C3C2D464C415348CC
:101750002D4552524F522D3E3E2053504920C8B481
:10176000CAB1216572726F72436F6465203D202596
:10177000640A00002C0000202DE9F05F05460020DF
:1017800092469B4688460646814640241BE02846F2
:1017900041464746224600F042F853465A46C01A90
:1017A000914110D311461846224600F029F82D1A0F
:1017B00067EB01084F4622460120002100F020F887
:1017C00017EB00094E41201EA4F10104DFDC48465E
:1017D00031462A464346BDE8F09F0000064C074DBF
:1017E00006E0E06840F0010394E8070098471034F1
:1017F000AC42F6D3FEF7A0FC401B0008601B0008BB
:10180000202A04DB203A00FA02F1002070479140C0
:10181000C2F1200320FA03F3194390407047202AB5
:1018200004DB203A21FA02F00021704721FA02F38A
:10183000D040C2F120029140084319467047000091
:101840000FB4054B10B503A9044A029800F018F82C
:1018500010BC5DF814FB0000DD1300083000002010
:1018600002E008C8121F08C1002AFAD17047704769
:10187000002001E001C1121F002AFBD170470000C7
:101880002DE9FF4F8DB09B460F460446002606E02B
:1018900025280BD05A460F999047641C761C207857
:1018A0000028F5D111B03046BDE8F08F0025A846DC
:1018B0000122984900E0054314F8013F203B02FA59
:1018C00003F00842F7D120782E2817D114F8010F21
:1018D00045F004052A280ED06FF02F022078A0F1E1
:1018E000300109290AD808EB880102EB410100EB1D
:1018F0000108641CF2E757F8048B641C20786C28FC
:101900000DD004DC4C2812D06A2811D104E07428D0
:101910000DD07A280CD10AE045F4001507E0617873
:1019200045F48015814202D1641C05F58015641CC4
:101930002278692A45D008DC002AB3D0582A69D019
:10194000632A10D0642A08D13BE0702A67D0732A3A
:1019500013D0752A5CD0782A5CD010465A460F996D
:101960009047761CD3E017F8040B8DF80000002098
:101970008DF80100E946012003E057F8049B4FF081
:10198000FF3069074FF0000501D40AE06D1C4545A2
:101990000DDA8542FADB19F805100029F6D106E0C8
:1019A0006D1C8542FCDB19F805100029F8D12E4486
:1019B00004E019F8010B5A460F9990476D1EF8D2B2
:1019C000A5E00A200021CDE90801C5F30250022854
:1019D0000DD001CFC117031E71F100030DDA4FF0D6
:1019E000000CD0EB0C006CEB01012D2308E0FF1D77
:1019F00027F00707F7E80201EDE72B0504D52B23B5
:101A00008DF8283001233BE0EB0739D02023F7E79E
:101A10000A2000E010200021CDE9080107E0102095
:101A2000002145F00405CDE908014FF00808C5F391
:101A3000025002280FD001CF00214FF0000A2B07DF
:101A40001FD5702A0DD0DDE908C38CF0100C5CEABC
:101A5000030C0CD015E0FF1D27F00707F7E8020183
:101A6000EBE740228DF828204FF0010A0BE050EA06
:101A7000010306D030238DF828308DF82920022369
:101A80009A46582A04D024A20DF120090B9209E0AD
:101A900026A2F9E7DDE90823FFF76EFE0B9B9B5CAE
:101AA00009F8013D50EA0102F4D1ADEB0900203004
:101AB0000890680701D44FF001080899884502DDB5
:101AC000A8EB010000E000208046002506E00AA8FF
:101AD0005A46405D0F9990476D1C761C5545F6DBC4
:101AE00004E030205A460F999047761CB8F1000167
:101AF000A8F10108F5DC05E019F8010B5A460F9929
:101B00009047761C0899481E08900029F4DC641C54
:101B1000C5E600000928010030313233343536374C
:101B20003839616263646566000000003031323329
:101B300034353637383941424344454600000000C9
:101B4000601B00080000002034000000601800083E
:101B5000941B000834000020CC040000701800081A
:101B600000A24A040000000000000000010203047B
:101B70000607080900000000010203040102030433
:101B800006070809020406080000000000A0000083
:041B90000000000051
:0400000508000131BD
:00000001FF
